{
  "contractName": "Escrow",
  "abi": [
    {
      "inputs": [
        {
          "internalType": "uint256",
          "name": "_totalCapital",
          "type": "uint256"
        }
      ],
      "stateMutability": "payable",
      "type": "constructor"
    },
    {
      "anonymous": false,
      "inputs": [
        {
          "indexed": true,
          "internalType": "uint256",
          "name": "deliverableId",
          "type": "uint256"
        },
        {
          "indexed": false,
          "internalType": "uint256",
          "name": "amount",
          "type": "uint256"
        },
        {
          "indexed": true,
          "internalType": "address",
          "name": "worker",
          "type": "address"
        }
      ],
      "name": "DeliverableAdded",
      "type": "event"
    },
    {
      "anonymous": false,
      "inputs": [
        {
          "indexed": true,
          "internalType": "uint256",
          "name": "deliverableId",
          "type": "uint256"
        },
        {
          "indexed": true,
          "internalType": "address",
          "name": "worker",
          "type": "address"
        },
        {
          "indexed": false,
          "internalType": "uint256",
          "name": "amount",
          "type": "uint256"
        }
      ],
      "name": "DeliverableApproved",
      "type": "event"
    },
    {
      "anonymous": false,
      "inputs": [
        {
          "indexed": true,
          "internalType": "uint256",
          "name": "deliverableId",
          "type": "uint256"
        },
        {
          "indexed": true,
          "internalType": "address",
          "name": "worker",
          "type": "address"
        },
        {
          "indexed": false,
          "internalType": "string",
          "name": "proof",
          "type": "string"
        }
      ],
      "name": "DeliverableCompleted",
      "type": "event"
    },
    {
      "inputs": [],
      "name": "deliverableCount",
      "outputs": [
        {
          "internalType": "uint256",
          "name": "",
          "type": "uint256"
        }
      ],
      "stateMutability": "view",
      "type": "function"
    },
    {
      "inputs": [
        {
          "internalType": "uint256",
          "name": "",
          "type": "uint256"
        }
      ],
      "name": "deliverables",
      "outputs": [
        {
          "internalType": "uint256",
          "name": "amount",
          "type": "uint256"
        },
        {
          "internalType": "bool",
          "name": "completed",
          "type": "bool"
        },
        {
          "internalType": "address payable",
          "name": "worker",
          "type": "address"
        }
      ],
      "stateMutability": "view",
      "type": "function"
    },
    {
      "inputs": [],
      "name": "owner",
      "outputs": [
        {
          "internalType": "address",
          "name": "",
          "type": "address"
        }
      ],
      "stateMutability": "view",
      "type": "function"
    },
    {
      "inputs": [],
      "name": "totalCapital",
      "outputs": [
        {
          "internalType": "uint256",
          "name": "",
          "type": "uint256"
        }
      ],
      "stateMutability": "view",
      "type": "function"
    },
    {
      "inputs": [
        {
          "internalType": "uint256",
          "name": "_amount",
          "type": "uint256"
        },
        {
          "internalType": "address payable",
          "name": "_worker",
          "type": "address"
        }
      ],
      "name": "addDeliverable",
      "outputs": [],
      "stateMutability": "nonpayable",
      "type": "function"
    },
    {
      "inputs": [
        {
          "internalType": "uint256",
          "name": "_deliverableId",
          "type": "uint256"
        },
        {
          "internalType": "string",
          "name": "_proof",
          "type": "string"
        }
      ],
      "name": "completeDeliverable",
      "outputs": [],
      "stateMutability": "nonpayable",
      "type": "function"
    },
    {
      "inputs": [
        {
          "internalType": "uint256",
          "name": "_deliverableId",
          "type": "uint256"
        }
      ],
      "name": "approveDeliverable",
      "outputs": [],
      "stateMutability": "nonpayable",
      "type": "function"
    }
  ],
  "bytecode": "0x6080604052604051610ffa380380610ffa833981810160405281019061002591906100ea565b803414610067576040517f08c379a000000000000000000000000000000000000000000000000000000000815260040161005e90610195565b60405180910390fd5b335f5f6101000a81548173ffffffffffffffffffffffffffffffffffffffff021916908373ffffffffffffffffffffffffffffffffffffffff16021790555080600181905550506101b3565b5f5ffd5b5f819050919050565b6100c9816100b7565b81146100d3575f5ffd5b50565b5f815190506100e4816100c0565b92915050565b5f602082840312156100ff576100fe6100b3565b5b5f61010c848285016100d6565b91505092915050565b5f82825260208201905092915050565b7f53656e742076616c7565206d757374206d6174636820746f74616c20636170695f8201527f74616c0000000000000000000000000000000000000000000000000000000000602082015250565b5f61017f602383610115565b915061018a82610125565b604082019050919050565b5f6020820190508181035f8301526101ac81610173565b9050919050565b610e3a806101c05f395ff3fe608060405234801561000f575f5ffd5b506004361061007b575f3560e01c806366d64f7c1161005957806366d64f7c146100eb5780638da5cb5b14610107578063da33d60014610125578063e6b7fb7c146101415761007b565b8063383032ea1461007f5780633e5a8eb01461009d5780636435b4d9146100b9575b5f5ffd5b61008761015f565b6040516100949190610745565b60405180910390f35b6100b760048036038101906100b29190610799565b610165565b005b6100d360048036038101906100ce9190610799565b61033c565b6040516100e29392919061081d565b60405180910390f35b6101056004803603810190610100919061087c565b61038e565b005b61010f61059c565b60405161011c91906108da565b60405180910390f35b61013f600480360381019061013a9190610a2f565b6105c0565b005b610149610727565b6040516101569190610745565b60405180910390f35b60015481565b5f5f9054906101000a900473ffffffffffffffffffffffffffffffffffffffff1673ffffffffffffffffffffffffffffffffffffffff163373ffffffffffffffffffffffffffffffffffffffff16146101f3576040517f08c379a00000000000000000000000000000000000000000000000000000000081526004016101ea90610b09565b60405180910390fd5b5f60035f8381526020019081526020015f209050806001015f9054906101000a900460ff16610257576040517f08c379a000000000000000000000000000000000000000000000000000000000815260040161024e90610b71565b60405180910390fd5b8060010160019054906101000a900473ffffffffffffffffffffffffffffffffffffffff1673ffffffffffffffffffffffffffffffffffffffff166108fc825f015490811502906040515f60405180830381858888f193505050501580156102c1573d5f5f3e3d5ffd5b508060010160019054906101000a900473ffffffffffffffffffffffffffffffffffffffff1673ffffffffffffffffffffffffffffffffffffffff16827f420b7eadcdbe01d5dfef82117193bf2369c91435dd51e236ac90ce8d5af9d5da835f01546040516103309190610745565b60405180910390a35050565b6003602052805f5260405f205f91509050805f015490806001015f9054906101000a900460ff16908060010160019054906101000a900473ffffffffffffffffffffffffffffffffffffffff16905083565b5f5f9054906101000a900473ffffffffffffffffffffffffffffffffffffffff1673ffffffffffffffffffffffffffffffffffffffff163373ffffffffffffffffffffffffffffffffffffffff161461041c576040517f08c379a000000000000000000000000000000000000000000000000000000000815260040161041390610b09565b60405180910390fd5b600154821115610461576040517f08c379a000000000000000000000000000000000000000000000000000000000815260040161045890610bd9565b60405180910390fd5b60405180606001604052808381526020015f151581526020018273ffffffffffffffffffffffffffffffffffffffff1681525060035f60025481526020019081526020015f205f820151815f01556020820151816001015f6101000a81548160ff02191690831515021790555060408201518160010160016101000a81548173ffffffffffffffffffffffffffffffffffffffff021916908373ffffffffffffffffffffffffffffffffffffffff1602179055509050508160015f8282546105299190610c24565b925050819055508073ffffffffffffffffffffffffffffffffffffffff166002547f9123a566492cc50736e73f7887b7fce62aba5983812a48b9817bab22bb8bdae9846040516105799190610745565b60405180910390a360025f81548092919061059390610c57565b91905055505050565b5f5f9054906101000a900473ffffffffffffffffffffffffffffffffffffffff1681565b5f60035f8481526020019081526020015f2090508060010160019054906101000a900473ffffffffffffffffffffffffffffffffffffffff1673ffffffffffffffffffffffffffffffffffffffff163373ffffffffffffffffffffffffffffffffffffffff1614610666576040517f08c379a000000000000000000000000000000000000000000000000000000000815260040161065d90610d0e565b60405180910390fd5b806001015f9054906101000a900460ff16156106b7576040517f08c379a00000000000000000000000000000000000000000000000000000000081526004016106ae90610d76565b60405180910390fd5b6001816001015f6101000a81548160ff0219169083151502179055503373ffffffffffffffffffffffffffffffffffffffff16837f8b78f0a5a25ce980521bb8d0f7f40b91cc561310ded9e8753a1a28eb53c313468460405161071a9190610de4565b60405180910390a3505050565b60025481565b5f819050919050565b61073f8161072d565b82525050565b5f6020820190506107585f830184610736565b92915050565b5f604051905090565b5f5ffd5b5f5ffd5b6107788161072d565b8114610782575f5ffd5b50565b5f813590506107938161076f565b92915050565b5f602082840312156107ae576107ad610767565b5b5f6107bb84828501610785565b91505092915050565b5f8115159050919050565b6107d8816107c4565b82525050565b5f73ffffffffffffffffffffffffffffffffffffffff82169050919050565b5f610807826107de565b9050919050565b610817816107fd565b82525050565b5f6060820190506108305f830186610736565b61083d60208301856107cf565b61084a604083018461080e565b949350505050565b61085b816107fd565b8114610865575f5ffd5b50565b5f8135905061087681610852565b92915050565b5f5f6040838503121561089257610891610767565b5b5f61089f85828601610785565b92505060206108b085828601610868565b9150509250929050565b5f6108c4826107de565b9050919050565b6108d4816108ba565b82525050565b5f6020820190506108ed5f8301846108cb565b92915050565b5f5ffd5b5f5ffd5b5f601f19601f8301169050919050565b7f4e487b71000000000000000000000000000000000000000000000000000000005f52604160045260245ffd5b610941826108fb565b810181811067ffffffffffffffff821117156109605761095f61090b565b5b80604052505050565b5f61097261075e565b905061097e8282610938565b919050565b5f67ffffffffffffffff82111561099d5761099c61090b565b5b6109a6826108fb565b9050602081019050919050565b828183375f83830152505050565b5f6109d36109ce84610983565b610969565b9050828152602081018484840111156109ef576109ee6108f7565b5b6109fa8482856109b3565b509392505050565b5f82601f830112610a1657610a156108f3565b5b8135610a268482602086016109c1565b91505092915050565b5f5f60408385031215610a4557610a44610767565b5b5f610a5285828601610785565b925050602083013567ffffffffffffffff811115610a7357610a7261076b565b5b610a7f85828601610a02565b9150509250929050565b5f82825260208201905092915050565b7f4f6e6c79206f776e65722063616e2063616c6c20746869732066756e6374696f5f8201527f6e00000000000000000000000000000000000000000000000000000000000000602082015250565b5f610af3602183610a89565b9150610afe82610a99565b604082019050919050565b5f6020820190508181035f830152610b2081610ae7565b9050919050565b7f44656c6976657261626c65206e6f742079657420636f6d706c657465640000005f82015250565b5f610b5b601d83610a89565b9150610b6682610b27565b602082019050919050565b5f6020820190508181035f830152610b8881610b4f565b9050919050565b7f416d6f756e74206578636565647320746f74616c206361706974616c000000005f82015250565b5f610bc3601c83610a89565b9150610bce82610b8f565b602082019050919050565b5f6020820190508181035f830152610bf081610bb7565b9050919050565b7f4e487b71000000000000000000000000000000000000000000000000000000005f52601160045260245ffd5b5f610c2e8261072d565b9150610c398361072d565b9250828203905081811115610c5157610c50610bf7565b5b92915050565b5f610c618261072d565b91507fffffffffffffffffffffffffffffffffffffffffffffffffffffffffffffffff8203610c9357610c92610bf7565b5b600182019050919050565b7f4f6e6c792061737369676e656420776f726b65722063616e20636f6d706c65745f8201527f65207468652064656c6976657261626c65000000000000000000000000000000602082015250565b5f610cf8603183610a89565b9150610d0382610c9e565b604082019050919050565b5f6020820190508181035f830152610d2581610cec565b9050919050565b7f44656c6976657261626c6520616c726561647920636f6d706c657465640000005f82015250565b5f610d60601d83610a89565b9150610d6b82610d2c565b602082019050919050565b5f6020820190508181035f830152610d8d81610d54565b9050919050565b5f81519050919050565b8281835e5f83830152505050565b5f610db682610d94565b610dc08185610a89565b9350610dd0818560208601610d9e565b610dd9816108fb565b840191505092915050565b5f6020820190508181035f830152610dfc8184610dac565b90509291505056fea26469706673582212204ab1bc61bec3915c291ac98bc1c0df23714cec6ceeee812265650d61c00691d864736f6c634300081d0033",
  "immutableReferences": {},
  "source": "// SPDX-License-Identifier: MIT\r\npragma solidity ^0.8.4;\r\n\r\ncontract Escrow {\r\n    struct Deliverable {\r\n        uint256 amount;\r\n        bool completed;\r\n        address payable worker;\r\n    }\r\n\r\n    address public owner;\r\n    uint256 public totalCapital;\r\n    uint256 public deliverableCount;\r\n    mapping(uint256 => Deliverable) public deliverables;\r\n\r\n    event DeliverableAdded(uint256 indexed deliverableId, uint256 amount, address indexed worker);\r\n    event DeliverableCompleted(uint256 indexed deliverableId, address indexed worker, string proof);\r\n    event DeliverableApproved(uint256 indexed deliverableId, address indexed worker, uint256 amount);\r\n\r\n    modifier onlyOwner() {\r\n        require(msg.sender == owner, \"Only owner can call this function\");\r\n        _;\r\n    }\r\n\r\n    constructor(uint256 _totalCapital) payable {\r\n        require(msg.value == _totalCapital, \"Sent value must match total capital\");\r\n        owner = msg.sender;\r\n        totalCapital = _totalCapital;\r\n    }\r\n\r\n    function addDeliverable(uint256 _amount, address payable _worker) external onlyOwner {\r\n        require(_amount <= totalCapital, \"Amount exceeds total capital\");\r\n        deliverables[deliverableCount] = Deliverable({\r\n            amount: _amount,\r\n            completed: false,\r\n            worker: _worker\r\n        });\r\n        totalCapital -= _amount;\r\n        emit DeliverableAdded(deliverableCount, _amount, _worker);\r\n        deliverableCount++;\r\n    }\r\n\r\n    function completeDeliverable(uint256 _deliverableId, string memory _proof) external {\r\n        Deliverable storage deliverable = deliverables[_deliverableId];\r\n        require(msg.sender == deliverable.worker, \"Only assigned worker can complete the deliverable\");\r\n        require(!deliverable.completed, \"Deliverable already completed\");\r\n        deliverable.completed = true;\r\n        emit DeliverableCompleted(_deliverableId, msg.sender, _proof);\r\n    }\r\n\r\n    function approveDeliverable(uint256 _deliverableId) external onlyOwner {\r\n        Deliverable storage deliverable = deliverables[_deliverableId];\r\n        require(deliverable.completed, \"Deliverable not yet completed\");\r\n        deliverable.worker.transfer(deliverable.amount);\r\n        emit DeliverableApproved(_deliverableId, deliverable.worker, deliverable.amount);\r\n    }\r\n}",
  "sourcePath": "C:\\Users\\jrmat\\SpeckLock\\my-escrow-project\\contracts\\contract.sol",
  "compiler": {
    "name": "solc",
    "version": "0.8.29+commit.ab55807c.Emscripten.clang"
  },
  "schemaVersion": "3.4.16",
  "updatedAt": "2025-03-16T22:21:01.450Z",
  "devdoc": {
    "kind": "dev",
    "methods": {},
    "version": 1
  },
  "userdoc": {
    "kind": "user",
    "methods": {},
    "version": 1
  }
}